{
  "abi": [
    {
      "inputs": [],
      "name": "getEtherValue",
      "outputs": [
        {
          "internalType": "uint256",
          "name": "",
          "type": "uint256"
        },
        {
          "internalType": "uint256",
          "name": "",
          "type": "uint256"
        },
        {
          "internalType": "uint256",
          "name": "",
          "type": "uint256"
        }
      ],
      "stateMutability": "payable",
      "type": "function"
    },
    {
      "stateMutability": "payable",
      "type": "receive"
    }
  ],
  "bytecode": {
    "object": "0x608060405234801561001057600080fd5b5060da8061001f6000396000f3fe60806040526004361060205760003560e01c806325b29d8414602b57600080fd5b36602657005b600080fd5b60316050565b6040805193845260208401929092529082015260600160405180910390f35b6000808034816066670de0b6b3a7640000836083565b905060006076633b9aca00846083565b9296919550919350915050565b600082609f57634e487b7160e01b600052601260045260246000fd5b50049056fea264697066735822122016e59ee9462108f0650560158d22198a6fcf6697129f953c69e83ed5feb4815e64736f6c63430008150033",
    "linkReferences": {}
  },
  "methodIdentifiers": {
    "getEtherValue()": "25b29d84"
  },
  "id": 0
}