{
  "abi": [
    {
      "inputs": [],
      "name": "myAddress",
      "outputs": [
        {
          "internalType": "address",
          "name": "",
          "type": "address"
        }
      ],
      "stateMutability": "view",
      "type": "function"
    },
    {
      "inputs": [],
      "name": "myBool",
      "outputs": [
        {
          "internalType": "bool",
          "name": "",
          "type": "bool"
        }
      ],
      "stateMutability": "view",
      "type": "function"
    },
    {
      "inputs": [],
      "name": "myString",
      "outputs": [
        {
          "internalType": "string",
          "name": "",
          "type": "string"
        }
      ],
      "stateMutability": "view",
      "type": "function"
    },
    {
      "inputs": [],
      "name": "myUint",
      "outputs": [
        {
          "internalType": "uint256",
          "name": "",
          "type": "uint256"
        }
      ],
      "stateMutability": "view",
      "type": "function"
    },
    {
      "inputs": [
        {
          "internalType": "address",
          "name": "_myAddress",
          "type": "address"
        }
      ],
      "name": "setMyAddress",
      "outputs": [
        {
          "internalType": "address",
          "name": "",
          "type": "address"
        }
      ],
      "stateMutability": "nonpayable",
      "type": "function"
    },
    {
      "inputs": [
        {
          "internalType": "bool",
          "name": "_myBool",
          "type": "bool"
        }
      ],
      "name": "setMyBool",
      "outputs": [
        {
          "internalType": "bool",
          "name": "",
          "type": "bool"
        }
      ],
      "stateMutability": "nonpayable",
      "type": "function"
    },
    {
      "inputs": [
        {
          "internalType": "string",
          "name": "_myString",
          "type": "string"
        }
      ],
      "name": "setMyString",
      "outputs": [
        {
          "internalType": "string",
          "name": "",
          "type": "string"
        }
      ],
      "stateMutability": "nonpayable",
      "type": "function"
    },
    {
      "inputs": [
        {
          "internalType": "uint256",
          "name": "_myUint",
          "type": "uint256"
        }
      ],
      "name": "setMyUint",
      "outputs": [
        {
          "internalType": "uint256",
          "name": "",
          "type": "uint256"
        }
      ],
      "stateMutability": "nonpayable",
      "type": "function"
    }
  ],
  "bytecode": {
    "object": "0x608060405234801561001057600080fd5b506105af806100206000396000f3fe608060405234801561001057600080fd5b50600436106100885760003560e01c8063821805681161005b578063821805681461010b578063a8a7b8951461011e578063e492fd841461014f578063eb1b30d91461016557600080fd5b806306540f7e1461008d57806326b85ee1146100a9578063492bfa18146100d95780636deecdbe146100ee575b600080fd5b61009660005481565b6040519081526020015b60405180910390f35b6001546100c19061010090046001600160a01b031681565b6040516001600160a01b0390911681526020016100a0565b6100e1610184565b6040516100a091906102b0565b6001546100fb9060ff1681565b60405190151581526020016100a0565b6100e1610119366004610314565b610212565b6100c161012c3660046103c5565b60018054610100600160a81b0319166101006001600160a01b0384160217905590565b61009661015d3660046103f5565b600081905590565b6100fb61017336600461040e565b6001805460ff191682151517905590565b6002805461019190610430565b80601f01602080910402602001604051908101604052809291908181526020018280546101bd90610430565b801561020a5780601f106101df5761010080835404028352916020019161020a565b820191906000526020600020905b8154815290600101906020018083116101ed57829003601f168201915b505050505081565b6060600261022083826104b9565b805461022b90610430565b80601f016020809104026020016040519081016040528092919081815260200182805461025790610430565b80156102a45780601f10610279576101008083540402835291602001916102a4565b820191906000526020600020905b81548152906001019060200180831161028757829003601f168201915b50505050509050919050565b600060208083528351808285015260005b818110156102dd578581018301518582016040015282016102c1565b506000604082860101526040601f19601f8301168501019250505092915050565b634e487b7160e01b600052604160045260246000fd5b60006020828403121561032657600080fd5b813567ffffffffffffffff8082111561033e57600080fd5b818401915084601f83011261035257600080fd5b813581811115610364576103646102fe565b604051601f8201601f19908116603f0116810190838211818310171561038c5761038c6102fe565b816040528281528760208487010111156103a557600080fd5b826020860160208301376000928101602001929092525095945050505050565b6000602082840312156103d757600080fd5b81356001600160a01b03811681146103ee57600080fd5b9392505050565b60006020828403121561040757600080fd5b5035919050565b60006020828403121561042057600080fd5b813580151581146103ee57600080fd5b600181811c9082168061044457607f821691505b60208210810361046457634e487b7160e01b600052602260045260246000fd5b50919050565b601f8211156104b457600081815260208120601f850160051c810160208610156104915750805b601f850160051c820191505b818110156104b05782815560010161049d565b5050505b505050565b815167ffffffffffffffff8111156104d3576104d36102fe565b6104e7816104e18454610430565b8461046a565b602080601f83116001811461051c57600084156105045750858301515b600019600386901b1c1916600185901b1785556104b0565b600085815260208120601f198616915b8281101561054b5788860151825594840194600190910190840161052c565b50858210156105695787850151600019600388901b60f8161c191681555b5050505050600190811b0190555056fea2646970667358221220a6ee9aa70a174261d6ef9e0c406541dd0e9f25ae7a76dca8405c534024f3bc6164736f6c63430008150033",
    "linkReferences": {}
  },
  "methodIdentifiers": {
    "myAddress()": "26b85ee1",
    "myBool()": "6deecdbe",
    "myString()": "492bfa18",
    "myUint()": "06540f7e",
    "setMyAddress(address)": "a8a7b895",
    "setMyBool(bool)": "eb1b30d9",
    "setMyString(string)": "82180568",
    "setMyUint(uint256)": "e492fd84"
  },
  "id": 1
}